{
  "contractName": "SharingApp",
  "abi": [
    {
      "inputs": [],
      "name": "objectCount",
      "outputs": [
        {
          "internalType": "uint256",
          "name": "",
          "type": "uint256"
        }
      ],
      "stateMutability": "view",
      "type": "function",
      "constant": true
    },
    {
      "inputs": [
        {
          "internalType": "uint256",
          "name": "",
          "type": "uint256"
        }
      ],
      "name": "objects",
      "outputs": [
        {
          "internalType": "string",
          "name": "name",
          "type": "string"
        },
        {
          "internalType": "string",
          "name": "description",
          "type": "string"
        },
        {
          "internalType": "uint256",
          "name": "price",
          "type": "uint256"
        },
        {
          "internalType": "address",
          "name": "owner",
          "type": "address"
        },
        {
          "internalType": "address",
          "name": "renter",
          "type": "address"
        },
        {
          "internalType": "uint256",
          "name": "rentalStartTime",
          "type": "uint256"
        }
      ],
      "stateMutability": "view",
      "type": "function",
      "constant": true
    },
    {
      "inputs": [
        {
          "internalType": "string",
          "name": "_objectName",
          "type": "string"
        },
        {
          "internalType": "string",
          "name": "_objectDescription",
          "type": "string"
        },
        {
          "internalType": "uint256",
          "name": "_objectPrice",
          "type": "uint256"
        }
      ],
      "name": "register_object",
      "outputs": [],
      "stateMutability": "nonpayable",
      "type": "function"
    },
    {
      "inputs": [
        {
          "internalType": "uint256",
          "name": "_objectId",
          "type": "uint256"
        }
      ],
      "name": "rent_object",
      "outputs": [],
      "stateMutability": "payable",
      "type": "function",
      "payable": true
    },
    {
      "inputs": [
        {
          "internalType": "uint256",
          "name": "_objectId",
          "type": "uint256"
        }
      ],
      "name": "return_object",
      "outputs": [],
      "stateMutability": "nonpayable",
      "type": "function"
    },
    {
      "inputs": [],
      "name": "getObjects",
      "outputs": [
        {
          "internalType": "address[]",
          "name": "",
          "type": "address[]"
        }
      ],
      "stateMutability": "view",
      "type": "function",
      "constant": true
    }
  ],
  "bytecode": "0x608060405234801561001057600080fd5b50611341806100206000396000f3fe6080604052600436106100555760003560e01c80631665ff7c1461005a5780632339988a146100855780637adcdca6146100a15780637ec3ba3a146100ca57806396c5892c146100f3578063ed1758501461011e575b600080fd5b34801561006657600080fd5b5061006f610160565b60405161007c91906109ec565b60405180910390f35b61009f600480360381019061009a9190610a58565b61026b565b005b3480156100ad57600080fd5b506100c860048036038101906100c39190610a58565b6104f7565b005b3480156100d657600080fd5b506100f160048036038101906100ec9190610bcb565b61060d565b005b3480156100ff57600080fd5b5061010861076a565b6040516101159190610c65565b60405180910390f35b34801561012a57600080fd5b5061014560048036038101906101409190610a58565b610770565b60405161015796959493929190610d0e565b60405180910390f35b6060600060015467ffffffffffffffff8111156101805761017f610aa0565b5b6040519080825280602002602001820160405280156101ae5781602001602082028036833780820191505090505b5090506000600190505b60015481116102635760008082815260200190815260200160002060030160009054906101000a900473ffffffffffffffffffffffffffffffffffffffff16826001836102059190610dac565b8151811061021657610215610de0565b5b602002602001019073ffffffffffffffffffffffffffffffffffffffff16908173ffffffffffffffffffffffffffffffffffffffff1681525050808061025b90610e0f565b9150506101b8565b508091505090565b3373ffffffffffffffffffffffffffffffffffffffff1660008083815260200190815260200160002060030160009054906101000a900473ffffffffffffffffffffffffffffffffffffffff1673ffffffffffffffffffffffffffffffffffffffff160361030e576040517f08c379a000000000000000000000000000000000000000000000000000000000815260040161030590610ea3565b60405180910390fd5b600073ffffffffffffffffffffffffffffffffffffffff1660008083815260200190815260200160002060040160009054906101000a900473ffffffffffffffffffffffffffffffffffffffff1673ffffffffffffffffffffffffffffffffffffffff16146103b2576040517f08c379a00000000000000000000000000000000000000000000000000000000081526004016103a990610f0f565b60405180910390fd5b6000808281526020019081526020016000206002015434101561040a576040517f08c379a000000000000000000000000000000000000000000000000000000000815260040161040190610f7b565b60405180910390fd5b3360008083815260200190815260200160002060040160006101000a81548173ffffffffffffffffffffffffffffffffffffffff021916908373ffffffffffffffffffffffffffffffffffffffff160217905550426000808381526020019081526020016000206005018190555060008082815260200190815260200160002060030160009054906101000a900473ffffffffffffffffffffffffffffffffffffffff1673ffffffffffffffffffffffffffffffffffffffff166108fc349081150290604051600060405180830381858888f193505050501580156104f3573d6000803e3d6000fd5b5050565b3373ffffffffffffffffffffffffffffffffffffffff1660008083815260200190815260200160002060040160009054906101000a900473ffffffffffffffffffffffffffffffffffffffff1673ffffffffffffffffffffffffffffffffffffffff161461059a576040517f08c379a00000000000000000000000000000000000000000000000000000000081526004016105919061100d565b60405180910390fd5b600080600083815260200190815260200160002060040160006101000a81548173ffffffffffffffffffffffffffffffffffffffff021916908373ffffffffffffffffffffffffffffffffffffffff16021790555060008060008381526020019081526020016000206005018190555050565b6001600081548092919061062090610e0f565b91905055506040518060c001604052808481526020018381526020018281526020013373ffffffffffffffffffffffffffffffffffffffff168152602001600073ffffffffffffffffffffffffffffffffffffffff1681526020016000815250600080600154815260200190815260200160002060008201518160000190816106a99190611239565b5060208201518160010190816106bf9190611239565b506040820151816002015560608201518160030160006101000a81548173ffffffffffffffffffffffffffffffffffffffff021916908373ffffffffffffffffffffffffffffffffffffffff16021790555060808201518160040160006101000a81548173ffffffffffffffffffffffffffffffffffffffff021916908373ffffffffffffffffffffffffffffffffffffffff16021790555060a08201518160050155905050505050565b60015481565b60006020528060005260406000206000915090508060000180546107939061105c565b80601f01602080910402602001604051908101604052809291908181526020018280546107bf9061105c565b801561080c5780601f106107e15761010080835404028352916020019161080c565b820191906000526020600020905b8154815290600101906020018083116107ef57829003601f168201915b5050505050908060010180546108219061105c565b80601f016020809104026020016040519081016040528092919081815260200182805461084d9061105c565b801561089a5780601f1061086f5761010080835404028352916020019161089a565b820191906000526020600020905b81548152906001019060200180831161087d57829003601f168201915b5050505050908060020154908060030160009054906101000a900473ffffffffffffffffffffffffffffffffffffffff16908060040160009054906101000a900473ffffffffffffffffffffffffffffffffffffffff16908060050154905086565b600081519050919050565b600082825260208201905092915050565b6000819050602082019050919050565b600073ffffffffffffffffffffffffffffffffffffffff82169050919050565b600061095382610928565b9050919050565b61096381610948565b82525050565b6000610975838361095a565b60208301905092915050565b6000602082019050919050565b6000610999826108fc565b6109a38185610907565b93506109ae83610918565b8060005b838110156109df5781516109c68882610969565b97506109d183610981565b9250506001810190506109b2565b5085935050505092915050565b60006020820190508181036000830152610a06818461098e565b905092915050565b6000604051905090565b600080fd5b600080fd5b6000819050919050565b610a3581610a22565b8114610a4057600080fd5b50565b600081359050610a5281610a2c565b92915050565b600060208284031215610a6e57610a6d610a18565b5b6000610a7c84828501610a43565b91505092915050565b600080fd5b600080fd5b6000601f19601f8301169050919050565b7f4e487b7100000000000000000000000000000000000000000000000000000000600052604160045260246000fd5b610ad882610a8f565b810181811067ffffffffffffffff82111715610af757610af6610aa0565b5b80604052505050565b6000610b0a610a0e565b9050610b168282610acf565b919050565b600067ffffffffffffffff821115610b3657610b35610aa0565b5b610b3f82610a8f565b9050602081019050919050565b82818337600083830152505050565b6000610b6e610b6984610b1b565b610b00565b905082815260208101848484011115610b8a57610b89610a8a565b5b610b95848285610b4c565b509392505050565b600082601f830112610bb257610bb1610a85565b5b8135610bc2848260208601610b5b565b91505092915050565b600080600060608486031215610be457610be3610a18565b5b600084013567ffffffffffffffff811115610c0257610c01610a1d565b5b610c0e86828701610b9d565b935050602084013567ffffffffffffffff811115610c2f57610c2e610a1d565b5b610c3b86828701610b9d565b9250506040610c4c86828701610a43565b9150509250925092565b610c5f81610a22565b82525050565b6000602082019050610c7a6000830184610c56565b92915050565b600081519050919050565b600082825260208201905092915050565b60005b83811015610cba578082015181840152602081019050610c9f565b60008484015250505050565b6000610cd182610c80565b610cdb8185610c8b565b9350610ceb818560208601610c9c565b610cf481610a8f565b840191505092915050565b610d0881610948565b82525050565b600060c0820190508181036000830152610d288189610cc6565b90508181036020830152610d3c8188610cc6565b9050610d4b6040830187610c56565b610d586060830186610cff565b610d656080830185610cff565b610d7260a0830184610c56565b979650505050505050565b7f4e487b7100000000000000000000000000000000000000000000000000000000600052601160045260246000fd5b6000610db782610a22565b9150610dc283610a22565b9250828203905081811115610dda57610dd9610d7d565b5b92915050565b7f4e487b7100000000000000000000000000000000000000000000000000000000600052603260045260246000fd5b6000610e1a82610a22565b91507fffffffffffffffffffffffffffffffffffffffffffffffffffffffffffffffff8203610e4c57610e4b610d7d565b5b600182019050919050565b7f596f752063616e6e6f742072656e7420796f7572206f776e206f626a65637400600082015250565b6000610e8d601f83610c8b565b9150610e9882610e57565b602082019050919050565b60006020820190508181036000830152610ebc81610e80565b9050919050565b7f4f626a65637420697320616c72656164792072656e7465640000000000000000600082015250565b6000610ef9601883610c8b565b9150610f0482610ec3565b602082019050919050565b60006020820190508181036000830152610f2881610eec565b9050919050565b7f496e73756666696369656e742066756e64730000000000000000000000000000600082015250565b6000610f65601283610c8b565b9150610f7082610f2f565b602082019050919050565b60006020820190508181036000830152610f9481610f58565b9050919050565b7f596f7520617265206e6f74207468652072656e746572206f662074686973206f60008201527f626a656374000000000000000000000000000000000000000000000000000000602082015250565b6000610ff7602583610c8b565b915061100282610f9b565b604082019050919050565b6000602082019050818103600083015261102681610fea565b9050919050565b7f4e487b7100000000000000000000000000000000000000000000000000000000600052602260045260246000fd5b6000600282049050600182168061107457607f821691505b6020821081036110875761108661102d565b5b50919050565b60008190508160005260206000209050919050565b60006020601f8301049050919050565b600082821b905092915050565b6000600883026110ef7fffffffffffffffffffffffffffffffffffffffffffffffffffffffffffffffff826110b2565b6110f986836110b2565b95508019841693508086168417925050509392505050565b6000819050919050565b600061113661113161112c84610a22565b611111565b610a22565b9050919050565b6000819050919050565b6111508361111b565b61116461115c8261113d565b8484546110bf565b825550505050565b600090565b61117961116c565b611184818484611147565b505050565b5b818110156111a85761119d600082611171565b60018101905061118a565b5050565b601f8211156111ed576111be8161108d565b6111c7846110a2565b810160208510156111d6578190505b6111ea6111e2856110a2565b830182611189565b50505b505050565b600082821c905092915050565b6000611210600019846008026111f2565b1980831691505092915050565b600061122983836111ff565b9150826002028217905092915050565b61124282610c80565b67ffffffffffffffff81111561125b5761125a610aa0565b5b611265825461105c565b6112708282856111ac565b600060209050601f8311600181146112a35760008415611291578287015190505b61129b858261121d565b865550611303565b601f1984166112b18661108d565b60005b828110156112d9578489015182556001820191506020850194506020810190506112b4565b868310156112f657848901516112f2601f8916826111ff565b8355505b6001600288020188555050505b50505050505056fea2646970667358221220f0dd23e8d387a8c59b60f4e6e4fc4cc68a0def9a04f80511cd674f2e471c2f9b64736f6c63430008130033",
  "immutableReferences": {},
  "source": "// SPDX-License-Identifier: MIT\npragma solidity 0.8.19;\n\ncontract SharingApp {\n    struct Object {\n        string name;\n        string description;\n        uint256 price;\n        address owner;\n        address renter;\n        uint256 rentalStartTime;\n    }\n\n    mapping (uint => Object) public objects;\n    uint256 public objectCount;\n\n    function register_object(string memory _objectName, string memory _objectDescription, uint256 _objectPrice) public {\n        objectCount++;\n        objects[objectCount] = Object(_objectName, _objectDescription, _objectPrice, msg.sender, address(0), 0);\n    }\n\n    function rent_object(uint256 _objectId) public payable {\n        require(objects[_objectId].owner != msg.sender, \"You cannot rent your own object\");\n        require(objects[_objectId].renter == address(0), \"Object is already rented\");\n        require(msg.value >= objects[_objectId].price, \"Insufficient funds\");\n\n        objects[_objectId].renter = msg.sender;\n        objects[_objectId].rentalStartTime = block.timestamp;\n\n        payable(objects[_objectId].owner).transfer(msg.value);\n    }\n\n    function return_object(uint256 _objectId) public {\n        require(objects[_objectId].renter == msg.sender, \"You are not the renter of this object\");\n\n        objects[_objectId].renter = address(0);\n        objects[_objectId].rentalStartTime = 0;\n    }\n\n    function getObjects() public view returns (address[] memory) {\n        address[] memory objectOwners = new address[](objectCount);\n        for (uint256 i = 1; i <= objectCount; i++) {\n            objectOwners[i - 1] = objects[i].owner;\n        }\n        return objectOwners;\n    }\n}\n",
  "sourcePath": "C:\\Users\\harik\\OneDrive\\Desktop\\sharing-renting-DAPP\\contracts\\SharingApp.sol",
  "compiler": {
    "name": "solc",
    "version": "0.8.19+commit.7dd6d404.Emscripten.clang"
  },
  "schemaVersion": "3.4.16",
  "updatedAt": "2024-09-23T11:26:47.611Z",
  "networkType": "ethereum",
  "devdoc": {
    "kind": "dev",
    "methods": {},
    "version": 1
  },
  "userdoc": {
    "kind": "user",
    "methods": {},
    "version": 1
  }
}